:020000040800F2
:1000000088230020250200080D200008DD1F0008BD
:1000100009200008B9140008132D00080000000092
:10002000000000000000000000000000C1280008DF
:10003000BD1400080000000045280008D52900086C
:100040003F0200083F0200083F0200083F0200088C
:100050003F0200083F0200083F0200083F0200087C
:100060003F0200083F0200083F0200083F0200086C
:100070003F0200083F0200083F0200083F0200085C
:100080003F0200083F0200083F0200083F0200084C
:100090003F0200083F0200083F020008A11C0008C0
:1000A0003F0200083F0200083F0200083F0200082C
:1000B0003F0200083F0200083F0200083F0200081C
:1000C0003F0200083F0200083F0200083F0200080C
:1000D0003F0200082D2C00083F0200083F020008E4
:1000E0003F0200083F0200083F0200083F020008EC
:1000F0003F0200083F0200083F0200083F020008DC
:100100003F0200083F0200083F0200083F020008CB
:100110003F0200083F0200083F0200083F020008BB
:100120003F0200083F0200083F0200083F020008AB
:1001300000F002F800F067F80AA090E8000C824492
:100140008344AAF10107DA4501D100F05CF8AFF26F
:10015000090EBAE80F0013F0010F18BFFB1A43F0A5
:10016000010318475C5600007C5600000A444FF01B
:10017000000C10F8013B13F0070408BF10F8014B06
:100180001D1108BF10F8015B641E05D010F8016B4B
:10019000641E01F8016BF9D113F0080F1EBF10F8AF
:1001A000014BAD1C0C1B09D16D1E58BF01F801CBD2
:1001B000FAD505E014F8016B01F8016B6D1EF9D555
:1001C0009142D6D37047000000230024002500266A
:1001D000103A28BF78C1FBD8520728BF30C148BFAA
:1001E0000B607047662903F0BE86002070471FB57C
:1001F00000F004FB04000020002102F08BFEE06010
:100200001FBD10B510BD00F0F5FB1146FFF7EFFF65
:1002100002F04CFE00F013FC03B4FFF7F2FF03BC46
:1002200002F094FD0948804709480047FEE7FEE7D1
:10023000FEE7FEE7FEE7FEE7FEE7FEE7FEE7FEE796
:1002400004480549054A064B70470000D9290008B3
:1002500031010008881D002088230020881F00200D
:10026000881F0020704700000FB41CB5074B06AA7A
:100270007B4469460090059800F0A7FA0020694683
:1002800000F0B6FA1CBC5DF814FB00007D05000010
:100290002DE9F0474FF0000A89460446C0F820A037
:1002A0002046E1688847002876D0252806D0D4E982
:1002B00001219047206A401C2062F1E7E168204656
:1002C00000258847C4F81CA006460027C4F818A0DB
:1002D0002A2E09D0304602F032FD38B304EB8708ED
:1002E000303EC8F8186019E059F8041B204604EBAA
:1002F00087029161E1688847012F064618D1E069BD
:10030000002820DA25F020051DE0D8F8180000EBC1
:10031000800006EB40003038C8F818002046E1683D
:100320008847064602F00BFD0028EED1012F0AD0C7
:100330002E2E08D12046E16888477F1C0646022FF2
:1003400045F02005C4DBA069002803DA404245F0EF
:100350000105A061E80701D025F01005B6B1A6F1AE
:100360004100192802D8203645F400654A46314636
:10037000204625604D46FFF735FF58B1012806D0CD
:10038000ED1D25F0070000F1080989E704E005F1FB
:10039000040985E730468AE7206ABDE8F0877047A0
:1003A00070477047704770472DE9FF4F0C461E4657
:1003B0004FF0FF378BB0D2E90001DDF860800A9082
:1003C0008A46C1F30A5505B93D46002108464FF05B
:1003D0000000BAF1000F00F4400005DA00EB8000E5
:1003E0004FF4400101EA50004FEA9059B9F1010F72
:1003F00000DDB9460A9850EA4A000ED044F6105083
:10040000A5F2FF3545432F14B8F1000F1ED07542F9
:10041000291E1EDDC9F100021CE0B8F1010F4FF0EA
:10042000000001D0302103E0F24305E02154401CDC
:10043000B042FBDB30460022002121540B99C1F869
:100440000880C1E900200FB0BDE8F08FBD1B6D1C16
:10045000DEE74A4600DA694206A800F059FA06AB20
:1004600093E8070003AB83E8070050460A9900F0C1
:100470002DFB8DE80700A0F500501F380090039871
:10048000002D09DD42F21F014A46084403A90390EA
:10049000684600F08CFD08E0A0F500504A461F3881
:1004A00003A90390684600F096FD8DE8070000045C
:1004B000000C03D04FF0FF30410800E01046B8F1C7
:1004C000000F03D00022009215461EE0751E05D4D1
:1004D00000F098F9303262556D1EF9D5B34601220D
:1004E000084302D000227F1C04E02078302801D18C
:1004F00000227F1E002A099786D01DE0112D07DA01
:1005000000F080F9303262556D1C50EA0102F5D1DD
:10051000084302D00098C8B10EE00021681E05E033
:10052000235C625C63542254401E491C8142F7DB09
:10053000AB46A81B401E0990002004F80B000B9846
:10054000099AC0F80880C0E9002B7CE711264FF01B
:10055000000859E72DE9F04F88460446D21D22F0E5
:10056000070191B0D1E90001CDE90A0102F0D3FB06
:1005700002460B98C00F01D02D2007E020688107AC
:1005800001D52B2002E0202101EAC000032A0990B6
:1005900001D0072A05DB03464146204600F078F9E2
:1005A0000BE12078800601D5E06900E00620B8F173
:1005B000650F814606D0B8F1660F18D0B8F1670F05
:1005C00070D131E00020B9F1110F009001DB11234F
:1005D00001E009F101030AAA01A90CA8FFF7E4FE52
:1005E000DDE90C70002609F10105834647E0012092
:1005F0004B4600904FF000470AAA01A90CA8FFF74C
:10060000D3FEDDE90DB00C995D46002610B909F165
:1006100001000D18B9EB050003D4C0F1FF3609F154
:100620000105A5EB09002BE0B9F1010F01DA4FF04C
:1006300001090020B9F1110F0090484601DD112396
:1006400000E003460AAA01A90CA8FFF7ADFEDDE908
:100650000C704D4600268346207800070AD4AB452F
:1006600000DA5D4601A8012D04DD411911F8011CD5
:10067000302907D04F4502DA17F1040F04DA0120C0
:1006800082460FE06D1EEEE7002F02DCED1B3E44BC
:1006900003E0781CA84200DD7D1CB81B00F1010AB4
:1006A0004FF000472078000703D4AA4501DB4FF044
:1006B000FF3A0021B7F1004F0DF143088DF84310C8
:1006C00024D002202B23002F01DA7F422D230A2180
:1006D000021EA0F1010000DC5FB197FBF1FC97FB6B
:1006E000F1F201FB1C7C17460CF1300C08F801CD2F
:1006F000EEE7A8F1010003702188090501D5452125
:1007000000E06521A0F1010800F8011C09980FA97B
:10071000A1EB0807FF1D00B10120411901EBEA70B0
:10072000A1693844081A401EA0612078C00602D48E
:100730002046AFF30080099828B1D4E90121904701
:10074000206A401C20622078C00622D52046AFF3E4
:1007500000801EE0002E04DBB34502DD01A8805DB1
:1007600000E03020D4E901219047206A401C20623B
:10077000761CAAF101005FEA000A0AD100F03EF8F7
:10078000C0680168405CD4E901219047206A401CA0
:100790002062281EA5F10105DCDC07E0D4E9012177
:1007A00018F8010B9047206A401C2062381EA7F100
:1007B0000107F3DC2046AFF30080032011B043E6CD
:1007C00001694A1C02610878704700B58FB0CDE915
:1007D00001310021059105497944CDE90310114605
:1007E0006846FFF755FD0FB000BD0000E5FFFFFFB5
:1007F0000A6802F8010B0A60704700000048704761
:10080000441D002030B5B0F10A024FEA900E71F19C
:1008100000034EEA817EB0EB0E0061EB91014FEADE
:10082000101E4EEA017E10EB0E0041EB11114FEA53
:10083000102E4EEA016E10EB0E0041EB11214FEA33
:10084000104E4EEA014E10EB0E0041EB11414018E4
:1008500041F100014FEAD00040EA41704FEAD10176
:1008600010EB80054FEA810444EA907444EB0104E4
:100870006D1944EB0404521BA3414FF0000348BF21
:100880000A3200D530BD401C41F1000130BD0000EE
:100890002DE9F0411F46044603260168072A01F4AA
:1008A000006004DB08B116A505E016A503E008B159
:1008B00015A500E015A521F010002060A069C01E5C
:1008C000A0610FB1401EA0612046AFF300804FB180
:1008D000D4E9012138469047206A401C2062C01CA0
:1008E000206206E0206AFAE7D4E9012115F8010B3D
:1008F0009047761EF8D22046AFF30080BDE8F08125
:100900004E414E006E616E00494E4600696E6600B3
:100910002DE9F047814616468AB0334878440DC821
:100920008DE80D0030487844801C03AC0DC884E885
:100930000D0041F69B300844372190FBF1F290FB0B
:10094000F1F5A5F1800501FB12041B3C02D56442C0
:10095000012000E00020DFF890A080460027FA4444
:10096000AAF1BE0A0DE0E00709D03246684607EB5F
:1009700047010AEB810100F02EFB8DE807006410AF
:100980007F1C002CEFD1184F7F44AC3F18E0E807E4
:1009900014D007EB04100DF1180A90E80E008AE855
:1009A0000E00C068F04201D198190890324606A99D
:1009B00003A800F010FB03AB83E807006D10641C74
:1009C000002DE4D132466946B8F1000F03A802D0E9
:1009D00000F0EDFA01E000F0FEFAC9E90001C9F803
:1009E00008200AB0BDE8F087884E00000048704734
:1009F000241D00207546FFF7F9FFAE460500694645
:100A0000534620F00700854618B020B5FFF718FCC4
:100A1000BDE820404FF000064FF000074FF00008FF
:100A20004FF0000B21F00701AC46ACE8C009ACE880
:100A3000C009ACE8C009ACE8C0098D46704704465F
:100A4000AFF300802046FFF7E7FB00004FF0013CCA
:100A500050F8042B51F8043B9A4221D1A2EB0C032D
:100A6000934313EACC1317D150F8042B51F8043BED
:100A70009A4215D1A2EB0C03934313EACC130BD18A
:100A800050F8042B51F8043B9A4209D1A2EB0C0315
:100A9000934313EACC13DBD04FF00000704700BF44
:100AA000D01A01BAB1FA81F101F0180122FA01F06D
:100AB000CB40C1F12001DBB2C0B2C01A2CFA01F365
:100AC000D11A914311EAC311E6D170475FEA400C95
:100AD00008BF91F0000F4FEA8C234FEAC12243EA8E
:100AE00051514FEA1C5018BF00F5F0404FEA30005A
:100AF00018BF41F000415FEA6C5C00F02980BCF156
:100B0000FF3F08BF40F080407047130C06BF12043F
:100B10004FF0100C4FF0000C130E04BF12020CF13A
:100B2000080C130F04BF12010CF1040C930F04BF47
:100B300092000CF1020CD30F04BF52000CF1010C17
:100B400011464FF00002A0F11F00A0EB0C0070470F
:100B500011F0004F08BF704731F000413FF4D5AFAE
:100B60000B0C06BF09044FF0100C4FF0000C0B0EDD
:100B700004BF09020CF1080C0B0F04BF09010CF1B2
:100B8000040C8B0F04BF89000CF1020CCB0F04BFC7
:100B900049000CF1010CCCF12003A0EB0C0022FA6F
:100BA00003F302FA0CF241EA030100F1010070477D
:100BB00020F07F4C80EA030023F07F47ACEB070373
:100BC00003F57C5300F0004003F1FF032DE9804959
:100BD0004FEA154B09B44FEA144325EA0B4E24EAB9
:100BE00003480FF2042606EB132749083E785FEA14
:100BF000320203FB0667C7F5000707FB06F64FEA5C
:100C000054374FEAD64606F1020607FB066CCCF1D4
:100C1000005C4FEA1C472CEA074C07FB06F40CFB70
:100C200006F504EB15464FEA961634BF00204FF048
:100C300000404FEAD13706FB07FC4FEA1C4C0CFB87
:100C40000BF7D21B03FB0CF761EB07010CFB0EF754
:100C5000B0EB074072EB17420CFB08F734BFA2EB76
:100C60000742B2EB074261EB17414FEA0C444FEAEF
:100C7000910706FB07FC4FEA1C4C0CFB0BF7B0EB93
:100C8000C74072EB573203FB0CF734BFA2EBC742ED
:100C9000B2EBC74261EB57310CFB0EF7B0EBC7006C
:100CA00072EB57720CFB08F734BFA2EBC702B2EB32
:100CB000C70261EB5771039F4FEA816141EA9211CC
:100CC00004EBCC044FEAD1374FEA826206FB07FC03
:100CD00042EA90124FEA80604FEA1C4C0CFB0BF783
:100CE000D21B03FB0CF761EB07010CFB0EF7B0EB1B
:100CF000074072EB17420CFB08F734BFA2EB074228
:100D0000B2EB074261EB17414FEA8C554FEA91076E
:100D100004EB9C2406FB07FC4FEA1C4C0CFB0BF776
:100D2000B0EBC74072EB573203FB0CF734BFA2EBBA
:100D3000C742B2EBC74261EB57310CFB0EF7B0EB89
:100D4000C70072EB57720CFB08F734BFA2EBC70267
:100D5000B2EBC70261EB577115EB4C254FEA81618D
:100D600041EA92114FEA82624FEAD13742EA901289
:100D700006FB07FC44F100044FEA80604FEA1C4C7C
:100D80000CFB0BF7D21B03FB0CF761EB07010CFB11
:100D90000EF7B0EB074072EB17420CFB08F734BFBD
:100DA000A2EB0742B2EB074261EB174115EB1C15B2
:100DB0004FEA813141EA92414FEA823242EA90425F
:100DC0004FEA80304FEA0C7644F1000448EA0343CE
:100DD0004EEA0B484FF0000EB2EB080C71EB030724
:100DE00024BF624639464EEB0E0E4FF0000B001842
:100DF000524149414BEB0B0BB2EB080C71EB030773
:100E00007BF1000B24BF624639464EEB0E0E4FF0CD
:100E1000000B0018524149414BEB0B0BB2EB080C95
:100E200071EB03077BF1000B24BF624639464EEBA2
:100E30000E0E51EA020718BF46F0010616EB0E76B9
:100E400055F1000254F1000103D5BDE88901BDE868
:100E50000088BDE88901BDE80048B619524141EB60
:100E60000101A3F10103704780807F7E7D7C7B7A46
:100E70007978777676757473727171706F6E6E6D46
:100E80006C6C6B6A6A6968686766666564646363EC
:100E900062616160605F5F5E5E5D5D5C5C5B5B5A72
:100EA0005A595958585757565655555554545353DF
:100EB00052525251515050504F4F4F4E4E4D4D4D3A
:100EC0004C4C4C4B4B4B4A4A4A4949494848484785
:100ED00047474746464645454544444444434343C3
:100EE0004342424242414141002B26D4770021D067
:100EF0001CB54FEA370703B44FF010004FF0100154
:100F00004FF000000FBCBDE810400BF1010BBBF12E
:100F1000010F08BF5FEA170722BF12F1010211F1AA
:100F200001014FF0004143F1000300F0004043EAAB
:100F300000007047F9D35708DAE746EA064613F18E
:100F4000400F4FEA16461FDD13F1200FDFBF164397
:100F50000A46002120335B42C8D0C3F1200746EA8D
:100F6000064602FA07F74FEA164646EA0706C3F1B5
:100F7000200722FA03F201FA07F721FA03F14FF0F2
:100F8000000342EA0702B1E746EA020646EA0646DD
:100F90004FEA164646EA0106BCBF46EA0646360C4C
:100FA0004FF000034FF000024FF000019EE72DE9E3
:100FB000C048934630B491E8380007C831EA400C85
:100FC00048BF34EA430C03D5FFF7F2FDFFF78CFF6F
:100FD000F0BCBDE800882DE9C048934630B491E8E4
:100FE000380007C810F0804F08BF13F0804F03D1BE
:100FF00000F005F8FFF778FFF0BCBDE8008820F0AE
:101000007F4780EA030023F07F4C07EB0C03A3F536
:101010007C5300F00040A3F1FE0392F0000F00F0BB
:10102000B38095F0000F00F077802DE901494FEA79
:1010300011404FEA144621EA004800FB06FC24EA6E
:10104000064708FB06F607FB08F800FB07F718EB56
:1010500006484CEB164C4FEA124B18EB07484FEA88
:1010600015464CEB174022EA0B4E0BFB06FC25EA1B
:1010700006470EFB06F607FB0EFE0BFB07F71EEB03
:10108000064E4CEB164C4FF000061EEB074E4CEB99
:10109000174B18EB0B0840F1000018EB0E0B58EB48
:1010A000000840F100008F1A4FF000013CBFC94317
:1010B000661B14BFB5EB040C00213CBFC943F61BF3
:1010C0004FEA17444EEA8E0E27EA04454FEA1C47C2
:1010D00004FB07622CEA074C05FB07F70CFB05F63F
:1010E00004FB0CFC16EB074642EB174216EB0C46D2
:1010F00042EB1C421BEB060658EB0202414146EA5A
:101100009E0601D5BDE80189B619524141EB0101A6
:10111000A3F10103BDE801894FEA14454FEA1147E5
:1011200024EA054621EA074C05FB07F406FB07F70E
:101130000CFB06F105FB0CFC11EB074144EB1744DB
:101140004FEA124711EB0C4144EB1C4422EA074CD6
:1011500005FB07F206FB07F70CFB06F605FB0CFC8C
:1011600016EB074642EB174216EB0C4642EB1C45CA
:101170006A1854F1000148BF7047B619524141EB5B
:101180000101A3F10103704795F0000F37D04FEA3A
:1011900011424FEA144721EA024624EA074C02FBB7
:1011A00007F106FB07F70CFB06F402FB0CFC14EB43
:1011B000074441EB17414FEA154714EB0C4441EB50
:1011C0001C4125EA074C02FB07F506FB07F70CFB61
:1011D00006F602FB0CFC16EB074645EB174516EB33
:1011E0000C4645EB1C42121951F1000148BF7047F3
:1011F000B619524141EB0101A3F1010370474FEAD7
:1012000014454FEA114724EA054621EA074C05FB3D
:1012100007F106FB07F70CFB06F24FF0000605FB93
:101220000CFC12EB074241EB174112EB0C4251EB65
:101230001C4148BF7047921841EB0101A3F1010323
:10124000704721B1826842F00102826003E0826847
:1012500022F001028260704710B5044612488442B1
:1012600008D10121401501F01BFB0021601501F0A0
:1012700017FB17E00D48844208D10121001501F049
:101280000FFB0021201501F00BFB0BE00848844206
:1012900008D10121C80301F003FB00214FF40040F5
:1012A00001F0FEFA10BD00000024014000280140BA
:1012B000003C0140014600208A6802F004020AB1A5
:1012C000012000E0002070470146C86C80B27047E2
:1012D0000246002013680B400BB1012000E0002003
:1012E0007047014600208A6802F008020AB1012016
:1012F00000E000207047000030B5024600200023C7
:1013000050680F4C20400D790C6844EA05242043B6
:10131000506090680B4C2040D1E902542C434D7929
:1013200044EA450420439060D06A20F470000C7CAD
:10133000641EE4B2234340EA0350D06230BD000093
:10134000FFFEF0FFFDF7F1FFF0B504460D4600206B
:101350000021092D11DDE068A5F10A0606EB46071C
:10136000072606FA07F18843A5F10A0606EB4606AA
:1013700003FA06F10843E0600CE0206905EB45073D
:10138000072606FA07F1884305EB450603FA06F13E
:1013900008432061072A0FDA606B561E06EB8607AA
:1013A0001F2606FA07F18843561E06EB860605FA45
:1013B00006F10843606322E00D2A0FDA206BD61F86
:1013C00006EB86071F2606FA07F18843D61F06EBB1
:1013D000860605FA06F10843206310E0E06AA2F1F0
:1013E0000D0606EB86071F2606FA07F18843A2F1D1
:1013F0000D0606EB860605FA06F10843E062F0BD2D
:10140000816841F008018160704721B1826842F42F
:10141000A002826003E0826822F4A002826070472A
:10142000816841F0040181607047000000B587B019
:1014300001214FF4017001F023FA4FF4004001F054
:1014400003FA0220ADF8040000208DF8070001A97E
:10145000174800F011FD1748FFF7FEFE002002902C
:101460008DF80C008DF80D004FF4602004900020E2
:10147000059001208DF8180002A90E48FFF73CFFE7
:1014800001210C48FFF7DDFE0A48FFF7B9FF00BF56
:101490000848FFF726FF0028FAD10648FFF7C0FFEB
:1014A00000BF0448FFF706FF0028FAD107B000BDCF
:1014B000000801400024014000BFFEE77047000023
:1014C0002DE9F041654890F8000120BB01206349F7
:1014D00081F8000104240BE0012000F065FD5F4964
:1014E00021F81400D1F8040101F0BAFC601CC4B268
:1014F0007C2CF1DB00F0C4FD00F0BCF800F0AAFA8F
:1015000000F002F901F012F8322001F083FC002013
:10151000524981F8000152480078FF287ED0504897
:10152000007830B101280ED0022818D0032876D1D7
:1015300047E04C480078032804D1FF204849087050
:1015400000F0B2FA7FE047480078401C4549087037
:1015500008460078032801DD0020087073E0414848
:101560000078012810D13D48D0F8040142F21071F2
:10157000884225D23948D0F8040100EB80004000B1
:101580003649C1F804011BE036480078022817D11B
:101590003249D1F80C014FF07E5102F03DFB0FD2E1
:1015A0002E49D1F80C0102F0A7F907462E4A2F4B1D
:1015B00001F0F8FC054601F0C3FC2849C1F80C0114
:1015C00041E028480078012818D12448D0F80401C7
:1015D0000A2809D92148D0F804010A21B0FBF1F00A
:1015E0001E49C1F804012CE01C48D0F804010A2867
:1015F00027D101201949C1F8040122E019480078D7
:1016000002281ED11549D1F80C0102F075F90546E2
:101610004FF03332164B02F04FF801E01BE011E0BF
:101620000FD20E49D1F80C0102F066F907460E4AB6
:101630000E4B02F077F8054601F082FC0749C1F82D
:101640000C0100E000BF00BF00F02EF900F048FFE1
:10165000FF2003490870BDE8F0810000101C002045
:101660001E000020C71600209A9999999999B93FB0
:101670003333E33F10B5102308221946042000F04D
:1016800067FD3F2308221946042000F061FD3F2337
:1016900000221021104600F05BFD3F2301221021A3
:1016A000104600F055FD3F2302221021104600F0A5
:1016B0004FFD3F2303221021104600F049FD102367
:1016C0007B221946772000F043FD3F237B221946F9
:1016D000772000F03DFD3F237F221021104600F0CF
:1016E00037FD3F237E221021104600F031FD3F23BD
:1016F0007D221021104600F02BFD3F237C2210217B
:10170000104600F025FD10BD2DE9F04F91B04FF0CF
:10171000040ABAE06048D0F80C114FF0834002F0A0
:1017200085F9064602F0E8F8CDE90C015A49D1F8EE
:101730000C0102F0E1F8CDE908015748D0F810118A
:10174000564802F09BFB834602F0D6F80022544B29
:10175000CDE9000101F0DAFC064600224FF080439B
:1017600001F0D4FC00224F4BCDE9020101F0A6FEAE
:10177000CDE9060148490AF1010031F81000C0EB3B
:10178000001101EB401040F6FF7190FBF1F0C0F149
:101790002F06304601F03FFECDE90401DDE90623C6
:1017A00001F0C0FF8046DDE9082301F087FECDE9A6
:1017B0000A01DDE90C2301F0F5FB044601F0FEFD12
:1017C000C0B20F903448D0F80C114FF0834002F0B3
:1017D0002DF9834602F090F806460F462E49D1F8BF
:1017E0000C0102F089F8CDE90C012B48D0F810115A
:1017F0002A4802F043FB834602F07EF80022284B81
:10180000CDE9000101F082FC00224FF08043CDE9D8
:10181000020101F07BFC0022224BCDE9040101F022
:101820004DFECDE908011C4830F81A00C0EB00114C
:1018300001EB401040F6FF7190FBF1F0C0F12F0B6F
:10184000584601F0E8FDCDE90601DDE9082301F085
:1018500069FFCDE90A01DDE90C2301F02FFE804686
:1018600032463B4601F09EFB044601F0A7FDC0B2A4
:101870000E900AF10100C2B25046DDE90E1300F0ED
:10188000BFFC0AF1010000F0FF0ABAF17B0FFFF67E
:1018900041AF11B0BDE8F08F101C002000F07F4573
:1018A00000FEAF400080474010B54F48007830B18F
:1018B000012805D002280AD0032816D10EE015E031
:1018C0000F232C220021052000F022FD0EE00F2323
:1018D00050220021352000F01BFD07E00F237B2262
:1018E00000215E2000F014FD00E000BF00BF3F4873
:1018F000D0F8040164281BD004DC01280AD00A288F
:101900002BD10EE0B0F57A7F19D0A0F51C5010381D
:1019100018BB1BE00C2336A20221072000F02EFF8B
:101920001CE00C2334A20221072000F027FF15E061
:101930000C2333A20221072000F020FF0EE00C232D
:1019400031A20221072000F019FF07E00C2330A28A
:101950000221072000F012FF00E000BF00BF234972
:10196000D1F80C012C4902F08BF9044602F020F961
:10197000C0B2401F06282ED2DFE800F0261F181143
:101980000A030C2325A20221372000F0F7FE23E0F2
:101990000C2324A20221372000F0F0FE1CE00C23CF
:1019A00022A20221372000F0E9FE15E00C2321A23B
:1019B0000221372000F0E2FE0EE00C231FA20221DC
:1019C000372000F0DBFE07E00C231EA202213720A7
:1019D00000F0D4FE00E000BF00BF0C231BA20221D8
:1019E000612000F0CBFE10BDC7160020101C0020A7
:1019F00020314D485A0000003130304B485A000029
:101A000031304B485A00000020314B485A0000004A
:101A1000313030485A000000000020412A20203197
:101A2000000000002A302E39000000002A302E3835
:101A3000000000002A302E37000000002A302E3629
:101A4000000000002A302E35000000004D45554EA4
:101A50000000000010B5042405E02821204600F015
:101A600039FC601DC4B27C2CF7DB102405E0214654
:101A7000212000F02FFC601DC4B2402CF7DB1024A5
:101A800005E021463F2000F025FC601DC4B2402C3B
:101A9000F7DB102405E021465D2000F01BFC601DF3
:101AA000C4B2402CF7DB10BD2DE9FE4F4FF000090A
:101AB000CA4600F0E5FA002408E02107080E1023CA
:101AC0002246002100F0D6FD601CC4B2042CF4DBD9
:101AD0000C2366A21221002000F050FE04240BE02B
:101AE000211F522202EB0111C8B21023224600210D
:101AF00000F0C0FD601CC4B2062CF1DB0C235EA21A
:101B000012215A2000F03AFE062409E0A11F09071D
:101B1000080E10232246202100F0ACFD601CC4B248
:101B20000B2CF3DB5549D1F8100101F0E5FE074617
:101B30003A460B464FF06630514901F0E7FA054648
:101B400001F0FEF982464F49504602F065F90AD885
:101B5000504601F0D1FE05462A460B464AA168468A
:101B6000FEF782FB09E0504601F0C6FE05462A4614
:101B70000B4647A16846FEF777FB0C236A462421F3
:101B8000482000F0FBFD00F085FC6AE04248007848
:101B9000FF2863D04048007830B1012805D00228E2
:101BA00055D0032855D153E05CE000240DE001201E
:101BB00000F0FAF9484503DD012000F0F5F981460F
:101BC000012001F04DF9601CC4B2FF2CEFDB484648
:101BD00002F00EF82949C1F810014FF00009D1F8C0
:101BE000100101F089FE07463A460B464FF0663079
:101BF000234901F08BFA054601F0A2F982462149FA
:101C0000504602F009F80AD2504601F075FE05462A
:101C10002A460B461EA16846FEF726FB0EE01F492A
:101C2000504602F0F9F809D9504601F065FE054624
:101C30002A460B4614A16846FEF716FB0C236A469B
:101C40002421482000F09AFD00F024FC02E009E085
:101C500008E000BF00BFFF200F4908700A2001F014
:101C6000D9F893E700F00CFABDE8FE8F20526567C3
:101C7000756C61746F72000053455400101C002095
:101C80006666CA4000002041252E346656000000DA
:101C900020252E34665600001E0000200000C84299
:101CA00010B52021184800F072F930B9002017490A
:101CB0000870202000F070F824E04021124800F065
:101CC00066F930B9012011490870402000F064F82D
:101CD00018E080210C4800F05AF930B902200B4975
:101CE0000870802000F058F80CE04FF4807106482E
:101CF00000F04DF930B90320044908704FF48070AA
:101D000000F04AF810BD0000000C01401E00002049
:101D10000EB500F065F90121084600F0B1FD002084
:101D20008DF808000C208DF8090001208DF80A00BC
:101D3000052100F081F82020019001A800F032F880
:101D40000621012000F078F84020019001A800F061
:101D500029F80721012000F06FF88020019001A8E8
:101D600000F020F80821012000F066F84FF48070A0
:101D7000019001A800F016F817208DF8000002204D
:101D80008DF801008DF8020001208DF803006846EF
:101D900000F03EF90EBD00000149086070470000E8
:101DA00014040140002123498279002A3AD00A46CE
:101DB000126803689A430B461A600A1D126803688A
:101DC0009A430B1D1A60027911440A6803681A438A
:101DD0000A60184A0832126803689A43154B0833A0
:101DE0001A601A1D126803689A43124B0C331A606A
:101DF0004279102A0ED11A1F126803681A430D4B3C
:101E000008331A601A1D126803681A43094B0C3311
:101E10001A600DE00749427911440A6803681A43C1
:101E20000A6005E0027911440A6803689A430A606F
:101E3000704700000004014030B500228B071C0FE2
:101E40000F2303FA04F20B4B8C1053F82430934306
:101E5000084C8D1044F8253023468C1053F824305C
:101E60008C07240F00FA04F42343024C8D1044F82D
:101E7000253030BD080001402DE9F0410246002523
:101E80000026002000230024002791F803C00CF056
:101E90000F0591F803C00CF0100CBCF1000F03D03B
:101EA00091F802C04CEA050591F800C0BCF1000FA2
:101EB00031D0146800202BE04FF0010C0CFA00F335
:101EC000B1F800C00CEA03069E4220D183004FF017
:101ED0000F0C0CFA03F7BC4305FA03FC4CEA0404AC
:101EE00091F803C0BCF1280F06D14FF0010C0CFA99
:101EF00000FCC2F814C00AE091F803C0BCF1480F1E
:101F000005D14FF0010C0CFA00FCC2F810C0401CC7
:101F10000828D1D31460B1F800C0BCF1FF0F34DD44
:101F2000546800202EE000F1080C4FF0010808FA78
:101F30000CF3B1F800C00CEA03069E4221D18300E5
:101F40004FF00F0C0CFA03F7BC4305FA03FC4CEA04
:101F5000040491F803C0BCF1280F05D100F1080C6E
:101F600008FA0CF8C2F8148091F803C0BCF1480FCD
:101F700007D100F1080C4FF0010808FA0CF8C2F87C
:101F80001080401C0828CED35460BDE8F081024682
:101F9000002093680B400BB1012000E00020704747
:101FA000416170470161704710B504460723012263
:101FB00021460948FFF7C8F901210748FFF725FA2C
:101FC00000BF02210448FFF783F90028F9D0024836
:101FD000FFF77AF910BD00000024014000BFFEE7C2
:101FE00008B50121082000F04BFC4FF4F070ADF86B
:101FF000000048208DF8030069460248FFF73CFFC7
:1020000008BD0000000C014000BFFEE77047000063
:1020100070B5002100230F22C47804B3154C246846
:1020200004F4E064C4F5E064210AC1F10403CA4089
:10203000447804FA03F184781440214309010E4CDA
:102040000678A155047804F01F050124AC400578FA
:102050006D11AD0005F1E025C5F8004109E00478F7
:1020600004F01F050124AC40044D0678761145F8B4
:10207000264070BD0CED00E000E400E080E100E0EF
:1020800000200CE0002106E00022064B03EBC10318
:102090001A544A1CD1B28029F6DB421CD0B208285F
:1020A000F0DB70479017002070B50B46CE1701EBA0
:1020B0005676C6F3C702CE1701EB5676F610A1EBA3
:1020C000C606F4B20123A340DDB20E4B03EBC003FE
:1020D0009B5CDB430B4E06EBC006B354094B03EB92
:1020E000C0039B5C2B43074E06EBC006B354054B65
:1020F00003EBC0039B5CDB43024E06EBC006B3540C
:1021000070BD00009017002010B504461CB90021D6
:10211000A62000F055FB012C03D10021A72000F0E0
:102120004FFB10BD10B504463CB90021C82000F09B
:1021300047FB0021A12000F043FB012C07D1002127
:10214000C02000F03DFB0021A02000F039FB10BDB5
:102150002DE9FF4F84B081468A460020039002900B
:102160000698A0EB09050798A0EB0A06CDF80490A5
:10217000CDF800A0002D01DD012705E00DB90027F5
:1021800002E04FF0FF376D42002E02DD4FF00108F4
:1021900006E016B94FF0000802E04FF0FF38764233
:1021A000B54201DD2C4600E034464FF0000B21E043
:1021B000009AD1B2019AD0B200F08CF8039828446A
:1021C00003900298304402900398A04205DD0398E2
:1021D000001B03900198384401900298A04205DD4D
:1021E0000298001B02900098404400900BF10100FF
:1021F0001FFA80FB601C8345DADD08B0BDE8F08F74
:102200002DE9FF4F84B00F469846002002900190C0
:102210003F2F00DD3F27B8F13F0F01DD4FF03F08B2
:10222000102F00DA1027B8F1100F01DA4FF0100864
:10223000DDF810B00698A0EB0B04A8EB0705DDF85D
:1022400010B00097002C02DD4FF0010906E014B930
:102250004FF0000902E04FF0FF396442002D02DD2B
:102260004FF0010A06E015B94FF0000A02E04FF006
:10227000FF3A6D42AC4201DD264600E02E460020CA
:1022800003901FE0009AD1B20BF0FF0000F022F89B
:102290000298204402900198284401900298B0428C
:1022A00003DD0298801B0290CB440198B04205DD0B
:1022B0000198801B01900098504400900398401CA6
:1022C00080B20390711C03988842DBDD08B0BDE842
:1022D000F08F000070B50A46CE1701EB5676C6F3B4
:1022E000C703CE1701EB5676F610A1EBC606F4B283
:1022F0000122A240D5B2054A02EBC002D25C2A43B9
:10230000024E06EBC006F25470BD0000901700208C
:10231000F0B504460D4616461F462B463246294662
:102320002046FFF715FF3B46324639462046FFF769
:102330000FFF3B46224629462046FFF709FF3B4652
:10234000324629463046FFF703FFF0BD08B50121AC
:10235000082000F095FA4FF43C40ADF80000102042
:102360008DF8030003208DF8020069464848FFF706
:1023700083FD4FF43C414648FFF714FE4FF4806163
:102380004348FFF70FFE642000F044FD4FF48061E6
:102390003F48FFF705FEC82000F03CFD4FF4806188
:1023A0003B48FFF7FFFD0021AE2000F009FA0021B5
:1023B000084600F005FA0021102000F001FA002183
:1023C000402000F0FDF90021812000F0F9F9002102
:1023D000CF2000F0F5F90021A12000F0F1F9002153
:1023E000C82000F0EDF90021A62000F0E9F9002155
:1023F000A82000F0E5F900213F2000F0E1F90021DC
:10240000D32000F0DDF90021084600F0D9F90021C1
:10241000D52000F0D5F90021802000F0D1F900216D
:10242000D92000F0CDF90021F12000F0C9F90021F8
:10243000DA2000F0C5F90021122000F0C1F90021D6
:10244000DB2000F0BDF90021402000F0B9F90021A7
:10245000202000F0B5F90021022000F0B1F90021A0
:102460008D2000F0ADF90021142000F0A9F9002121
:10247000A42000F0A5F90021A62000F0A1F9002178
:10248000AF2000F09DF9FFF7FBFD00F003F808BD59
:10249000000C014070B500241CE004F1B001C8B28A
:1024A000002100F08DF90021084600F089F9002193
:1024B000102000F085F9002508E0084901EBC5016E
:1024C000085D012100F07CF9681CC5B2802DF4DBA9
:1024D000601CC4B2082CE0DB70BD00009017002027
:1024E00070B500241CE004F1B001C8B2002100F076
:1024F00067F90021084600F063F90021102000F080
:102500005FF9002508E0084901EBC501085D0121DC
:1025100000F056F9681CC5B2802DF4DB601CC4B213
:10252000022CE0DB70BD00009017002070B5022483
:102530001CE004F1B001C8B2002100F041F9002113
:10254000084600F03DF90021102000F039F900257F
:1025500008E0084901EBC501085D012100F030F9F0
:10256000681CC5B2802DF4DB601CC4B2082CE0DB13
:1025700070BD0000901700202DE9FF4F81B080460C
:102580000E461C4600962046E31704EB5373DB10FF
:1025900021464FEAE47C04EB5C7C4FEAEC0CA4EBB4
:1025A000CC0CBCF1000F02D04FF0010C01E04FF059
:1025B000000C6344224604EBD27C4FEA6C0C03FB14
:1025C0000CF303F0FF0B03982038C7B2002547E057
:1025D0000C2C07D107EB4700234901EB800010F8D2
:1025E00005A014E0102C05D1204800EB071010F8CE
:1025F00005A00CE0182C07D107EBC7001C4901EB24
:10260000800010F805A002E005B0BDE8F08F4FF0A3
:1026100000091FE00AF0800020B131464046FFF774
:1026200059FE03E031464046FFF73EFD4FEA4A605F
:102630004FEA106A701CC6B20098301AA04205D149
:10264000009E08F1010000F0FF0806E009F101001A
:1026500000F0FF09B9F1080FDCDB00BF681CC5B250
:102660005D45B5DB00BFCFE76A3F0008DE430008E9
:10267000CE4900082DE9FF4F0746884691461C4683
:102680004FF0000B0297CDF804802046E11704EBD1
:102690005171C1F3C701009160E009FB04F0C1175B
:1026A00000EB51710BEBE101CEB20BF1010000F038
:1026B000FF0B002550E0102C05D12C4800EB061034
:1026C000405D03901BE0182C07D106EBC60028499B
:1026D00001EBC000405D039011E0202C05D125489E
:1026E00000EBC610405D039009E0402C05D1224864
:1026F00000EB4620405D039001E0BDE8FF8F4FF006
:10270000000A17E0039800F0010020B14146384666
:10271000FFF7E0FD03E041463846FFF7C5FC0398AC
:102720004010039008F1010000F0FF080AF10100D9
:1027300000F0FF0ABAF1080FE4DB781CC7B2029878
:10274000381AA04204D1029F01980830C0B201900B
:10275000DDF80480681CC5B2A542ACDB0098411EC0
:10276000C9B20091002898D100BFC6E71F00002021
:102770003F020020C7040020C7060020F0B506462F
:102780000F4614461D4613E022782B463946304644
:10279000FFF7F2FE284605EBD07106EB6101CEB2E1
:1027A000C5F18000B04202DA0026B81CC7B2641C32
:1027B0002078202802DB20787E28E5DDF0BD0000AF
:1027C00070B504460E462EB14FF400611C48FFF769
:1027D000E9FB04E04FF400611948FFF7E1FB4FF417
:1027E00080511748FFF7DCFB00251BE04FF4005138
:1027F0001348FFF7D5FB04F0800028B14FF40041E7
:102800000F48FFF7CFFB04E04FF400410C48FFF7FF
:10281000C7FB4FF400510A48FFF7C4FB6006040EE3
:10282000681CC5B2082DE1DB4FF480510448FFF766
:10283000B9FB4FF400610248FFF7B4FB70BD000024
:10284000000C01407047000001460020034A506818
:1028500020F44040084350607047000000100240E0
:1028600029B1064AD2690243044BDA6104E0034A03
:10287000D2698243014BDA617047000000100240C8
:1028800029B1064A92690243044B9A6104E0034A63
:1028900092698243014B9A61704700000010024028
:1028A00029B1064AD2680243044BDA6004E0034AC5
:1028B000D2688243014BDA6070470000001002408A
:1028C000704710B500F002F810BD00000CB50020F4
:1028D000019000903348006840F48030314908602E
:1028E00000BF3048006800F4003000900198401CA0
:1028F0000190009818B90198B0F5A06FF1D129485E
:10290000006800F4003010B10120009001E00020C8
:1029100000900098012843D12348006840F010003F
:10292000214908600846006820F003000860084656
:10293000006840F0020008601A4840681949486081
:102940000846406848600846406840F48060486037
:102950000846406820F47C1048600846406840F40F
:10296000E81048600846006840F08070086000BFCA
:102970000C48006800F000700028F9D00948406851
:1029800020F00300074948600846406840F0020014
:10299000486000BF0348406800F00C000828F9D1E7
:1029A0000CBD00000010024000200240042808D1A5
:1029B0004FF0E021096941F004014FF0E02211617C
:1029C00007E04FF0E021096921F004014FF0E02217
:1029D000116170477047000010B51348006840F05F
:1029E00001001149086008464068104908400E4936
:1029F0004860084600680E4908400B4908600846D0
:102A0000006820F4802008600846406820F4FE003A
:102A100048604FF41F008860FFF753FF4FF00060DD
:102A20000449086010BD0000001002400000FFF8DB
:102A3000FFFFF6FE08ED00E030B589B005460C4614
:102A400001210220FFF70CFF01210520FFF718FFED
:102A50004020ADF8200018208DF8230003208DF8C9
:102A6000220008A91548FFF707FAADF81850ADF88D
:102A700014400020ADF81A00ADF8160005A9104862
:102A800000F082F86020ADF804000120ADF80600E7
:102A90000020ADF80C004FF4FA70ADF80A0001A95F
:102AA000074800F01BF80821054800F063F80121F1
:102AB000034800F007F809B030BD000000080140ED
:102AC0000004004021B1028842F00102028004E0CB
:102AD00002884FF6FE731A400280704770B50024DA
:102AE00000220023058C4FF6FE7635400584028CCB
:102AF0008388048B4FF68F752C40B51E2C400D88B3
:102B00002C43751E2A400D892A434D882A43144DB3
:102B1000A8420BD0134DA84208D0134DA84205D0AF
:102B2000124DA84202D0124DA84213D14FF6F775AC
:102B30002A404D892A434FF6FB752A408D882A4347
:102B40004FF6FF652B404FF6FF552B408D892B43E9
:102B5000CD892B4383800483CD888586028470BD14
:102B6000002C01400034014000400140004401407D
:102B7000004801400A460021018B4FF6F7731940C7
:102B80001143018370470000002202881D4B9842C8
:102B90000ED01D4B98420BD0B0F1804F08D01B4B8C
:102BA000984205D01A4B984202D01A4B984204D151
:102BB0004FF68F731A404B881A43174B984207D031
:102BC000164B984204D04FF6FF431A40CB881A4365
:102BD00002808B8883850B8803850A4B98420BD033
:102BE000094B984208D00E4B984205D00D4B9842A5
:102BF00002D00D4B984201D10B7A038601238382C8
:102C000070470000002C01400034014000040040E7
:102C100000080040000C004000100040001400407C
:102C200000400140004401400048014010B540F21E
:102C300025511D4800F03EF810B31B4800F064F821
:102C4000C4B21A48008800F40040C8B91748008888
:102C500000F4804060B10A2C03D0002013490880A2
:102C600020E01248008840F400401049088019E034
:102C70000D2C06D10D48008840F480400B49088097
:102C800010E00A480088C0F30D0009490C540748B9
:102C90000088401C0549088008460088C72801DDD7
:102CA0000020088010BD0000003801401C000020FA
:102CB000C816002070B5024600240023002500201D
:102CC00040F66A16B14200D100BFC1F3421501F0CF
:102CD0001F03012606FA03F3012D02D19689334022
:102CE00006E0022D02D1168A334001E0968A334075
:102CF0000C12012606FA04F41688344013B10CB104
:102D0000012000E0002070BD01468888C0F3080063
:102D1000704700BFFEE7490050EAC12018BF0420F9
:102D20004A0D18BF40F0010040F2FF72B2EB515F54
:102D300008BF40F00200012808BF05207047303866
:102D40000A2801D20120704700207047014600BFC9
:102D50007047000010B5002418231BA21021042086
:102D6000FFF70CFD1823002210213420FFF782FC0E
:102D70001823012210214C20FFF77CFC182302228B
:102D800010216420FFF776FC3C23752230210A20B5
:102D9000FFF7BEFA0EE004F10A01CAB2C8B23B2343
:102DA0003121FFF7D5F9FFF775FB0F2000F032F85E
:102DB000601CC4B26C2CEEDB642000F02BF8FFF733
:102DC00069FBFFF75DF910BD4D494E490000000059
:102DD00010B56FF00400FFF7E9FD0A4800680A49E2
:102DE000B0FBF1F0094908700846007800EB40019B
:102DF000C1EBC0104FF6FF7101EAC0000449088022
:102E000010BD00000000002000127A001400002015
:102E1000160000200146114A12884A434FF0E02371
:102E20005A6100229A611A46126942F001021A613F
:102E300000BF4FF0E022106900F001021AB100F467
:102E40008032002AF5D04FF0E022126922F0010210
:102E50004FF0E0231A6100229A61704716000020AB
:102E60000146114A12784A434FF0E0235A6100228A
:102E70009A611A46126942F001021A6100BF4FF0CE
:102E8000E022106900F001021AB100F48032002A39
:102E9000F5D04FF0E022126922F001024FF0E0235A
:102EA0001A6100229A61704714000020FFF790FF1A
:102EB000FEF72EFFFEF7BAFA472140F2E730FFF7A0
:102EC000BBFDFFF743FA0020FFF71EF90020FFF7D4
:102ED00029F9FFF7D5F8FFF7DDFAFE200A49087057
:102EE00000200A4981F800010A20C1F804010848BD
:102EF000C1F80C014FF08B40C1F81001FFF72AFF19
:102F000001E0FEF7DDFAFCE71E000020101C0020A7
:102F1000CDCC4C3F10B500290AD00878002807D046
:102F200005487844FDF792FD002801D0002010BD2F
:102F30000248784410BD0000BE280000B6280000FA
:102F400021F00042A2F16052B2F5801F01F000436F
:102F500028BFD2F17F6C0BD95FEA001C43EAC202A2
:102F600042EB507018BF704728BF20F00100704737
:102F7000B2F5801FBCBF184670474FEA410C1CF5E4
:102F8000001F02D2084600F042BF70B500F040FBBF
:102F900000000089FFF7F6BF4FF00040A0F5800069
:102FA0007047000010B591EA030F48BF83F000435B
:102FB00000F1C083841A71EB030C05D2121943EBA4
:102FC0000C03001B61EB0C01DFF824E14FEA115404
:102FD000A4EB135C1EEA430F18BF9EEA445F73D054
:102FE00023EA0E03DCF1200E21EA045143F480139E
:102FF00032D322FA0CFE10EB0E0023FA0CFE41EB4A
:103000000E01CCF1200E03FA0EFE10EB0E0051F172
:103010000001B1F5801FCCF1200E32D201EB04513A
:1030200012FA0EF2BDE8104058BF7047401C38BF7E
:103030005FEA420218BF7047002814BF20F0010069
:1030400041F100014FEA410313F5001F38BF7047FB
:10305000A1F1C04100F02ABB012A43EB0302ACF10D
:10306000200CDCF11F0E32BF4FF0000E23FA0CF3E0
:1030700010EB030041EB0451B4EB115FD0D0A1EB96
:10308000045101F5801149085FEA300001EB045159
:103090000ED350F1000038BF12FA0EFE08D1BDE881
:1030A0001040C9E7401C38BF5FEA4202CAD1C3E7FB
:1030B000BDE810404FEA410313F5001F38BF7047C9
:1030C000A1F1C04100F0F2BA9EEA445F08D011EAD3
:1030D0005E0FBDE8104004BF01F0004100207047C2
:1030E000BDE8104070B500F093FA00BF64FBBE3E2F
:1030F0000000E0FF491058BFC1F140415B1058BFCC
:10310000C3F140438B42EFF3008070472DE9C0418B
:1031100030B4DFF8A0C23CEA111418BF3CEA131423
:1031200000F0EC8081EA03051CEA111444EAD5742E
:1031300018BF1CEA131500F0C780A4EB05044FF07C
:10314000004545EAC12145EAC32341EA505143EA1B
:10315000525304F17F74994204F500344FEAC020C1
:103160004FEAC22208BF904200F09C804FEA1365EC
:103170000FF24016765D4FEA134506FB05F7C7F1DF
:10318000807706FB07F74FEAD737A7FB036876423D
:10319000C8F58038A7FB06CE38BFA8F1010807FBA9
:1031A00008E64FF0000EA6FB028CE6FB03CEDCF136
:1031B000000CCEF1004E38BFAEF1010EA6FB0C584C
:1031C0004FF000074FF00005E6FB0E87A1FB08C695
:1031D000A0FB07CE16EB0E0645F10005E1FB0765E7
:1031E00015F1E04E7EBFA4F580345FEA46066D41DE
:1031F00016F1800745F100054FEA17274FEA0666EA
:1032000047EA0567A6F1DE46B6F1805F4FEA15256D
:103210001FD9384624F0010C05EBC471BCF1FE6FD8
:1032200001EB0C1102D8F0BCBDE8008124425CBF68
:1032300001F5801E9EEAC47F02D4F0BCBDE8008187
:10324000244238D4F0BCA1F1C041BDE8004100F0F7
:103250002DBA4FEAD22242EA43524FEAD323A7FBC8
:1032600002864FEAD02040EA415007FB03661EEA7F
:103270000E0F4FEAD12105FB026658BFA6EB0056A0
:10328000B6EB00564FEA520E4EEAC37E18EB0E0E16
:1032900056EB530EBDD518EB02085E417F1C55F16D
:1032A0000005B6E74FF480154FF000074FF0000619
:1032B0004FF00008ADE7F0BC4FF0000001F1C04155
:1032C00001F00041BDE8008111EA0C1F0CEA131562
:1032D00000D00CE013EA0C1F00F025804FF0000036
:1032E000F0BC81EA030101F00041BDE80081F0BCBF
:1032F000BDE8004181EA030100F0D8B9F0BCBDE8A7
:10330000004170B500F084F9097EFC3E00F007B87A
:1033100081EA03014FF0000001F00041704781EAAB
:10332000030100F0C3B9F0BCBDE800414FF000005C
:1033300021497047FFFDFBF9F7F5F4F2F0EEEDEBF4
:10334000E9E8E6E4E3E1E0DEDDDBDAD8D7D5D4D3A3
:10335000D1D0CFCDCCCBCAC8C7C6C5C4C2C1C0BFEF
:10336000BEBDBCBBBAB9B8B7B6B5B4B3B2B1B0AFF5
:10337000AEADACABAAA9A8A8A7A6A5A4A3A3A2A1D9
:10338000A09F9F9E9D9C9C9B9A9999989797969594
:1033900095949393929191908F8F8E8E8D8C8C8B30
:1033A0008B8A8989888887878685858484838382B8
:1033B000828181800000FF070000F87F4FEA1153EF
:1033C000A3F58063D3F11E03A8BFD3F1200C08DB63
:1033D0004FF0004242EAC12252EA505232FA03F060
:1033E000704709420BD4102BC4BF0020704703F56F
:1033F000787CBCF1FF3F05D04FF0FF3070474FF0B5
:103400000000704770B500F003F900BF49922480B6
:1034100000207047F0E710F0004248BF4042B0FA89
:1034200080F310FA03F10AD0C3F11D0303F58063A2
:103430004FEA415002EB035202EBD12170474FF0AB
:103440000000704751EA030C17D41CF5801F58BFC9
:10345000BCF5801F00F10680994218BF704708BF75
:103460009042704707D711F5801F58BF13F5801F92
:1034700019D499427047894270471CF5801F08D5BE
:10348000BCF5801FF7D58B4218BF704708BF82423A
:1034900070474FF4001C1CEB410F38BF1CEB430F6F
:1034A00001D28B42704770B500F0B2F89224490007
:1034B0004FF000514FF08053FFF71CBEDFF848C1BA
:1034C00070B51CEA111E1EBF1CEA13159EEA0C0FF4
:1034D00095EA0C0F00F06F8081EA030423EA4C1395
:1034E0004EEAD47E21EA4C1141F4801143F480135A
:1034F000AE44A1FB024CA0FB0365AEF17F7E361902
:1035000055EB0C05A1FB034C4CF10003A0FB021C86
:1035100016EB0C06654153F10003094218BF46F053
:10352000010613F4007F0BD14FEA03314FEA053057
:10353000340341EA155140EA16506FF003020AE0E5
:103540004FEAC3214FEAC520F40241EA555140EA4F
:1035500056506FF0020202EB2E4201EB025585EA53
:10356000CE710AD05FEA440C18BF24F0004450F139
:10357000000041F1000120EAD47040F2FE7C624577
:1035800000D270BDA84214BF4FF080444FF04044B9
:10359000002E08BF0024BEF1806FA8BFA1F1C0417A
:1035A000BDE8704080F282804FF0000001F1C04120
:1035B00001F0004170479EEA0C0F0CEA131518BF8A
:1035C00095EA0C0F06D04FF0000081EA030E0EF0D2
:1035D000004170BD00F01CF88900013E00F007B802
:1035E00000F009B84FEA430C5FEA5C5C08D081EA5E
:1035F000030100F05BB84FEA410C5FEA5C5CF6D176
:103600004FF00000014970470000FF070000F87FFD
:103610000EF1020E2EF0030E5EF8046B364205D456
:10362000012A43EB030515F5001F12D8012841EBD1
:10363000010C1CF5001F0CD80ED14FEAD17C15F5FA
:10364000001F0CEB4C0C0CF1020C08BF4CEBD37CB4
:1036500004E04FF0080C01E04FEAD37C0CEB4C0582
:1036600026FA05F606F00706B6F1040C06D20EEBB4
:10367000860CBDE870404CF0010C6047DFE80CF0B0
:10368000090B02024FF000414FF00000A1F50021AC
:1036900070BD19461046012851EB010418BFD4F53E
:1036A000001484BF002001F0004170BD0808A0F59F
:1036B00000114FEA3101704753EA010C17D41CF591
:1036C000801F58BFBCF5801F00F106808B4218BFD9
:1036D000704708BF8242704707D713F5801F58BF55
:1036E00011F5801F19D48B4270479B4270471CF51F
:1036F000801F08D5BCF5801FF7D5994218BF7047C9
:1037000008BF904270474FF4001C1CEB430F38BFBA
:103710001CEB410F01D2994270470FB40CBC03BCA3
:10372000FFF7C1BE10B591EA030F48BF83F0004315
:103730003FF540AC841A71EB030C07D212198CF0E0
:10374000004C43EB0C03001B61EB0C01DFF8A4E120
:103750004FEA1154A4EB135C1EEA430F18BF9EEA14
:10376000445F00F0B08023EA6E03524221EA045124
:10377000C3EB6E0338BF5B1EDCF1200E25D322FAAB
:103780000CFE10EB0E0043FA0CFE41EB0E01CCF1E7
:10379000200E03FA0EFE10EB0E0051F10001CCF1E9
:1037A000200E29D412FA0EF201EB0451BDE81040AC
:1037B00058BF7047401C1CBFB2F1004F7047002833
:1037C0000CBF491C20F00100704712EB020E43EBC6
:1037D000030218BF4FF0010E4EEA4202ACF1200C7A
:1037E000DCF11E0E54D943FA0CFE10EB0E0051F121
:1037F000FF31CCF11E0ED5D50EF1010E12FA0EFEE0
:10380000404141EB010101EB445C5FEA5C5C10D993
:1038100010EBDE7001EB045138BFBEF1004FBDE884
:10382000104018BF704700280CBF491C20F0010051
:10383000704730D24FEAD42C11F5001124F4006403
:103840001BD0B1FA81F20B3AA41AA41ED2F12003C4
:10385000914030FA03F31943904001EBCC71002CF6
:1038600001EB0451BDE81040A8BF704701F1C04111
:103870004FF0000001F000417047B0FA80F310FAF9
:1038800003F100D110BDE41A173C4805C90AE4E76A
:1038900001EB045110BD491001EB0451BDE810408B
:1038A0004FEA300002E04FF0000170474A0008BFC5
:1038B0000042F8D0B2F5001F28BF704701F0004168
:1038C0004FF0000070479EEA445F07D011EA5E0F98
:1038D000BDE8104004BF002100207047BDE8104043
:1038E00070B5FFF795FE00BF40DFF63E83F0004164
:1038F000104670470000E0FF43004FEAD30C4FEA48
:103900003C0C43401FBF40070CF1605113F0FE4FC9
:1039100070471CF0006F03D100200CF0004170478D
:103920000CF0004343EA507010B540EACC0000F0C0
:1039300028FA00BF000000924FEA0001FFF7B6BE70
:103940004FF000414FF00000A1F50021704700004A
:1039500090EA010F48BF81F0004100F19682421ABF
:103960003CBF801A89184FEAD0524FF07F4C1CEAB6
:10397000410FA2EBD15318BF9CEA026F00F03B80CD
:103980004FF0004C4CEA00204CEA012121FA03FCE4
:1039900010EB0C0C1ED202F1FF325FEA1C2040EB50
:1039A000C25038BF70471CF07F0F4FEA400C18BF61
:1039B000BCF17F4F38BF7047C3F12003994008BF67
:1039C00020F00100BCF17F4F38BF7047A0F1C0402C
:1039D00000F01DBA4FEA3C00000A40EBC25028BF7D
:1039E0001CF0FF0F4FEA400CE6D018BFBCF17F4F30
:1039F00038BF7047EAE79CEA026F05D010EA5C0F17
:103A000008BF00F00040704710B500F0BAF900BFE1
:103A100064FBBE3E401058BFC0F14040491058BF43
:103A2000C1F140418142EFF3008070474FF47F0CB9
:103A30001CEAD0121EBF1CEAD11392EA0C0F93EAC3
:103A40000C0F00F0858090EA010F48BF42F48072AD
:103A500040F4000C41F400002CF07F4120F07F4046
:103A600000B58142A2EB03020FF2081CACEB504EF2
:103A7000C0F100009EF800E04FEA4E0E00FB0EFC85
:103A800038BF49004FEA2C1C02F5FA020CFB0EF37A
:103A90004FEACE1E4FEA112C4FEAC1210EEB635EB6
:103AA00042EB22420EFB0CFC4FEA1C5300FB0311BD
:103AB0004FEA112C4FEA01310EFB0CFC4FEADC4CB3
:103AC00000FB0C11C14228BF09184CEB03335DF811
:103AD00004EB10EB410143EBC250B2F57C0F38BF51
:103AE000704729D512F0F00F1CBF00F1C04000F064
:103AF00000407047008182838485868788898B8C0B
:103B00008D8E8F919293959697999A9C9D9FA0A246
:103B1000A3A5A7A8AAACAEB0B2B3B5B7B9BCBEC096
:103B2000C2C5C7C9CCCED1D4D7D9DCDFE2E6E9EC37
:103B3000F0F3F7FAFE0000004FEA400C0CF1807C35
:103B4000BCF17E4F28BF7047B0F1C04000F05FB9B4
:103B500090EA010F0CEAD11348BF42F4807262452B
:103B600038BF634507D213F47F0F16D080EA0100F7
:103B700000F00040704710B500F003F9097EFC3EEC
:103B800000F005B880EA010000F00040704780EACC
:103B9000010000F0004000F03AB912F47F0F04BFBA
:103BA0000248704780EA010000F031B90000C07F90
:103BB000C10DD1F19E0206DB4FEA002343F0004322
:103BC00023FA02F07047004207D54FEA4001B1F1F5
:103BD000FE4F02D24FF00000704710B500F0D1F850
:103BE00049922480002070476FEA2000704700004F
:103BF000B0FA80F310FA03F2C3F19D030AD0D9059D
:103C000001EB1220530638BF704700F1010008BFD6
:103C100020F001007047000050EA010C00F1138011
:103C20001CF5000F58BFBCF5000F01D48842704747
:103C300007D710F5000F58BF11F5000F15D48842B3
:103C40007047894270471CF5000F04D5BCF5000F82
:103C5000F7D5814270474FF0807C1CEB400F38BF96
:103C60001CEB410F01D28142704710B500F089F87A
:103C7000922449004FF000504FF08051FFF7CABE28
:103C80004FF47F0C1CEAD0121EBF1CEAD11392EA3B
:103C90000C0F93EA0C0F00F0478090EA010F48BF29
:103CA00042F480724FF0004C4CEA00204CEA0121B3
:103CB00002EB0302A0FB0113A2F50002002918BFCA
:103CC00043F001035B0028BF4FEA330342EB22427B
:103CD0005FEA132C4CEBC2502EBFBCEB436FB2F526
:103CE0007C0F70474FEA036CBCF1004F08BF20F017
:103CF0000100B2F57C0F38BF70470BD582F0FF0290
:103D000012F5803FC8BF704700F1C040D8BF00F037
:103D10000040704700F5000C5FEA4C0C48BF70474C
:103D2000B0F1C04000F073B890EA010F0CEAD11373
:103D300048BF42F48072624538BF634504D280EACE
:103D4000010000F00040704710B500F01AF800BF05
:103D50008900013E00F007B800F009B85FEA410CA5
:103D60005FEA1C6C08D080EA010000F050B85FEAFE
:103D7000400C5FEA1C6CF6D14FF00040A0F58000CB
:103D800070470EF1020E2EF0030E5EF8044B244233
:103D900004D44FEA4102B2F17F4F11D84FEA4003F9
:103DA000B3F17F4F0CD80ED14FEAD07CB2F17F4FE8
:103DB0000CEB4C0C0CF1020C08BF4CEBD17C04E07A
:103DC0004FF0080C01E04FEAD17C0CEB4C0324FAD5
:103DD00003F404F00704B4F1040C06D20EEB840CD7
:103DE000BDE810404CF0010C6047DFE80CF007081C
:103DF00002024FF00040A0F5800010BD08464200CE
:103E000018BFD2F1807288BF00F0004010BDFF21C2
:103E100041EAD050C005704751EA000C00F1138010
:103E20001CF5000F58BFBCF5000F01D4814270474C
:103E300007D711F5000F58BF10F5000F15D48142B8
:103E40007047894270471CF5000F04D5BCF5000F80
:103E5000F7D5884270474FF0807C1CEB410F38BF8C
:103E60001CEB400F01D28842704780EA010081EAD2
:103E7000000180EA0100FFF7F8BE000090EA010FA0
:103E800048BF81F000413FF56AAD421A04D882F084
:103E90000042A0EB020011444FEAD0524FF07F4C99
:103EA0001CEA410FA2EBD15318BF9CEA026F4AD023
:103EB0004FF0004C4CEA00204CEA012121FA03FCAF
:103EC000B0EB0C0C0FD412F0FE0F36D05FEA4C00B2
:103ED0001DD5001240EBC25038BF70471CF03F0F99
:103EE00018BF70470BE0A2F101025FEA1C2040EB13
:103EF000C25038BF70471CF07F0F18BF7047C3F126
:103F00002003994014BF401E20F001007047800834
:103F10004FEA122308BF7047B0FA80FCA2EB0C02F4
:103F2000CCF1280C60FA0CF093EA122F04BF00EBDE
:103F3000C25070474FEAC3707047130A5FEADC1043
:103F400008BF7047F6E79CEA026F04D010EA5C0FE6
:103F500008BF0020704710B5FFF713FF40DFF63EA3
:103F600081F000407047FCF7F5BA00000000000047
:103F7000000000000000000000003F4000000000C2
:103F80000000000030004000300040000000090048
:103F90000BC03D000BC03D00090018C024407FE06D
:103FA000224031800000180024C01B000D803240E8
:103FB000018003801C4027401C8007400040100007
:103FC0006000000000000000000000000000000091
:103FD0001F80204040200000402020401F80000023
:103FE0000000090006001F80060009000000040010
:103FF00004003F8004000400000000100060000086
:10400000000000000000040004000400040004009C
:104010000000000000400000000000000000002040
:1040200001C006003800400000001F8020402040F2
:1040300020401F800000000010403FC000400000F2
:10404000000018C021402240244018400000108089
:104050002040244024401B80000002000D0011007D
:104060003FC0014000003C80244024402440238085
:1040700000001F80244024403440038000003000B2
:10408000200027C03800200000001B80244024406E
:1040900024401B8000001C0022C0224022401F80C0
:1040A00000000000000008400000000000000000C8
:1040B00000000460000000000000000004000A008E
:1040C0001100208040400900090009000900090092
:1040D000000000004040208011000A000400180089
:1040E000200023402400180000001F8020402740AB
:1040F00029401F400000004007C039000F0001C0E8
:10410000004020403FC0244024401B8000001F800E
:104110002040204020403080000020403FC0204010
:1041200020401F80000020403FC024402E4030C06F
:10413000000020403FC024402E00300000000F004F
:104140001080204022403380020020403FC0040005
:1041500004003FC02040204020403FC0204020407D
:1041600000000060202020203FC0200020002040D0
:104170003FC024400B0030C0204020403FC02040C2
:104180000040004000C03FC03C0003C03C003FC0B6
:10419000000020403FC00C4023003FC020001F8093
:1041A0002040204020401F80000020403FC024408D
:1041B0002400180000001F802140214020E01FA0A3
:1041C000000020403FC02440260019C0004018C015
:1041D00024402440224031800000300020403FC075
:1041E00020403000000020003F80004000403F8021
:1041F000200020003E0001C00700380020003800E9
:1042000007C03C0007C038000000204039C006004D
:1042100039C0204000002000384007C0384020004E
:104220000000304021C02640384020C0000000007F
:1042300000007FE0402040200000000070000C00E3
:104240000380004000000000402040207FE000008C
:1042500000000000200040002000000000000010CE
:1042600000100010001000100010000000004000BE
:10427000000000000000000002800540054003C06F
:10428000004020003FC004400440038000000000C4
:104290000380044004400640000000000380044006
:1042A00024403FC00040000003800540054003401B
:1042B0000000000004401FC02440244020000000F3
:1042C00002E0055005500650042020403FC0044045
:1042D000040003C000400000044027C0004000006C
:1042E000000000100010041027E000000000204033
:1042F0003FC00140070004C00440204020403FC0B0
:1043000000400040000007C0040007C0040003C0D4
:104310000000044007C00440040003C00040000047
:1043200003800440044003800000041007F00450A0
:10433000044003800000000003800440045007F0A4
:104340000010044007C00240040004000000000008
:1043500006400540054004C00000000004001F8026
:10436000044000400000040007800040044007C0F3
:1043700000400400070004C001800600040006009D
:1043800001C0070001C006000000044006C0010093
:1043900006C0044000000410071004E0018006007D
:1043A00004000000044005C0064004400000000076
:1043B000000004007BE0402000000000000000003E
:1043C000FFF000000000000040207BE0040000003F
:1043D000000040008000400020002000400000005D
:1043E00000000000000000000000000000000000CD
:1043F000000000001FCC000C0000000000000000C6
:10440000080030006000080030006000000002205A
:1044100003FC1E20022003FC1E20022000000000DE
:104420000E1811043FFF10840C78000000000F00EC
:1044300010840F3800C007781884007800000078D6
:104440000F8410C411240E9800E4008400080800B2
:104450006800700000000000000000000000000084
:104460000000000007E018182004400200000000CF
:1044700040022004181807E000000000000002407D
:10448000024001800FF001800240024000000080E5
:10449000008000800FF80080008000800000000194
:1044A000000D000E000000000000000000000000F1
:1044B000008000800080008000800080008000007C
:1044C000000C000C000000000000000000000000D4
:1044D000000600180060018006001800200000009F
:1044E00007F0080810041004080807F00000000096
:1044F000080408041FFC0004000400000000000081
:104500000E0C10141024104411840E0C0000000036
:104510000C1810041104110412880C700000000023
:1045200000E00320042408241FFC002400000000F5
:104530001F981084110411041088107000000000EE
:1045400007F00888110411041888007000000000AA
:104550001C00100010FC13001C00100000000000E4
:104560000E3811441084108411440E3800000000ED
:104570000700088C10441044088807F00000000071
:1045800000000000030C030C00000000000000000D
:104590000000000101060000000000000000000013
:1045A00000800140022004100808100400000220CE
:1045B000022002200220022002200220000000002F
:1045C00010040808041002200140008000000000D0
:1045D0000E001200100C106C10800F00000003E0A1
:1045E0000C1813E4142417C4082807D00000000492
:1045F000003C03C41C40074000E4001C00041004FD
:104600001FFC1104110411040E880070000003E067
:104610000C1810041004100410081C1000001004E2
:104620001FFC100410041004080807F00000100418
:104630001FFC1104110417C4100408180000100412
:104640001FFC1104110017C010000800000003E057
:104650000C181004100410441C78004000001004D2
:104660001FFC10840080008010841FFC10040000D8
:10467000100410041FFC10041004000000000003CC
:104680000001100110011FFE1000100000001004B6
:104690001FFC110403801464181C10040000100493
:1046A0001FFC1004000400040004000C00001004AF
:1046B0001FFC1F0000FC1F001FFC10040000100462
:1046C0001FFC0C04030000E010181FFC100007F092
:1046D0000808100410041004080807F00000100473
:1046E0001FFC10841080108010800F00000007F065
:1046F000081810241024101C080A07F200001004E7
:104700001FFC1104110011C011300E0C0004000038
:104710000E1C11041084108410441C380000180072
:10472000100010041FFC10041000180000001000FE
:104730001FF810040004000410041FF810001000FB
:104740001E0011E0001C007013801C0010001FC030
:10475000103C00E01F0000E0103C1FC000001004EF
:10476000180C163401C001C01634180C10041000C7
:104770001C00130400FC13041C00100000000804BB
:10478000101C1064108413041C0410180000000096
:10479000000000007FFE40024002400200000000D6
:1047A00030000C0003800060001C000300000000CB
:1047B0004002400240027FFE0000000000000000B6
:1047C00000002000400040004000200000000001E8
:1047D00000010001000100010001000100010000D2
:1047E0004000400020000000000000000000000029
:1047F0000098012401440144014400FC000410001D
:104800001FFC008801040104008800700000000003
:104810000070008801040104010400880000000009
:10482000007000880104010411081FFC000400004E
:1048300000F8014401440144014400C800000000A4
:10484000010401040FFC1104110411001800000000
:1048500000D601290129012901C90106000010041F
:104860001FFC008401000100010400FC00040000A2
:104870000104190419FC00040004000000000000F9
:10488000000300010101190119FE000000001004DD
:104890001FFC0024004001B4010C010400000000D2
:1048A000100410041FFC00040004000000000104B8
:1048B00001FC0104010001FC0104010000FC0104F1
:1048C00001FC008401000100010400FC0004000060
:1048D00000F8010401040104010400F800000101D2
:1048E00001FF008501040104008800700000000041
:1048F0000070008801040104010501FF00010104AA
:10490000010401FC0084010401000180000000009A
:1049100000CC01240124012401240198000000009E
:104920000100010007F8010401040000000001007B
:1049300001F8000400040004010801FC0004010067
:1049400001800170000C001001600180010001F085
:10495000010C003001C00030010C01F0010000002A
:104960000104018C00740170018C0104000001013C
:1049700001810171000E001801600180010000003A
:104980000184010C013401440184010C0000000089
:1049900000000000000001003EFC40024002000058
:1049A000000000000000FFFF000000000000000009
:1049B000400240023EFC0100000000000000000038
:1049C00060008000800040004000200020000000C7
:1049D00000000000000000000000000000000000D7
:1049E00000000000000000000000000000000000C7
:1049F00000000000000000000000000000000000B7
:104A0000000F80380FFE380F8038000000000000D3
:104A1000000000000000000000000000010000068F
:104A200000000C00003800003100000600000C00FF
:104A3000003800003000000000000000000061802D
:104A40000067F807F98000618000618000618000E4
:104A500061800067F807F9800061800000000000B5
:104A60000000000001C0E003E0F006300804180870
:104A70001FFFFE040E080787F00381E0000000001E
:104A8000000001F000060C00040408060C7001F997
:104A9000C0000E00003BE000EC18070808040C18EA
:104AA0000003E00000000001E00007F003F8180434
:104AB0001C0804170807E1D003C0E00023B0003C45
:104AC00008002008000010000000000000010000A5
:104AD0003100003200001C00000000000000000057
:104AE00000000000000000000000000000000000C6
:104AF00000000000000000000000000000007F0037
:104B000001FFC00780F00C00181000042000020014
:104B100000000000002000021000040C00180780B4
:104B2000F001FFC0007F0000000000000000000056
:104B300000000000000000000000420000660000CD
:104B40006600003C0000180003FFC0001800003C95
:104B5000000066000066000042000000000008003F
:104B600000080000080000080000080001FFC00065
:104B7000080000080000080000080000080000000D
:104B80000000000100003100003200001C000000A5
:104B90000000000000000000000000000000000015
:104BA00000000000000008000008000008000008E5
:104BB00000000800000800000800000800000800CD
:104BC00000080000000000000000000000003800A5
:104BD0000038000038000000000000000000000065
:104BE00000000000000000000000000000000006BF
:104BF00000001C000070000180000E000038000062
:104C0000C0000700001C0000300000000000000091
:104C100000007F8001FFE003807006001804000898
:104C200004000806001803807001FFE0007F800088
:104C30000000000000000000010008010008010061
:104C40000803FFF807FFF80000080000080000084C
:104C500000000000000000000001C03802C058043D
:104C60000098040118040218040418061C1803F81C
:104C70001801E0F800000000000000000001C0E0A2
:104C800003C0F00400080408080408080618080314
:104C9000F41801E7F00001E000000000000000004F
:104CA00000000300000D00001100006100008108F9
:104CB00003010807FFF80FFFF800010800010800D2
:104CC00000000000000000E007FCD0060808061005
:104CD00008061008061008061838060FF00607C068
:104CE000000000000000000000003F8001FFE00322
:104CF000843002081804100804100804100807186B
:104D000010030FF00007C0000000000000000000CA
:104D100003C0000700000600000600F80607F806BA
:104D2000180006E000070000060000000000000078
:104D30000001E1E003F7F006341004180804180835
:104D4000040C08040C0806161803F3F001C1E00077
:104D5000000000000000F80003FC300306380402E5
:104D6000080402080402080404100308F001FFC04C
:104D7000007F0000000000000000000000000000B4
:104D8000000000000000703800703800703800002B
:104D90000000000000000000000000000000000013
:104DA00000000000000000000000301A00301C006D
:104DB00000000000000000000000000000000000F3
:104DC0000000000000080000140000220000410064
:104DD000008080010040020020040010080008004C
:104DE000000000000000210000210000210000213F
:104DF000000021000021000021000021000021000E
:104E0000002100000000000000000000080008046D
:104E100000100200200100400080800041000022BC
:104E20000000140000080000000000000003C000A3
:104E300004C000040000080038080F3808083808CB
:104E400010000C300007E00003C00000000000006C
:104E500000003F8000FFE0038070020F10067088A2
:104E600004C088048308047F8802C09003012000E6
:104E7000FE400000080000180001F8003E0801C2D2
:104E80000007020007E20000FE00001FC80001F852
:104E900000003800000804000807FFF807FFF804C6
:104EA000080804080804080804080806180803F499
:104EB0001801E7F00001E0000000000000003F8062
:104EC00001FFE003807002001804000804000804D9
:104ED00000080400100600200780C0000000040045
:104EE0000807FFF807FFF80400080400080400089A
:104EF00004001802001003807001FFE0007F8000B2
:104F0000000004000807FFF807FFF8040808040879
:104F100008040808040808043E08040008060018ED
:104F200001006000000004000807FFF807FFF80414
:104F30000808040800040800040800043E000600F5
:104F400000060000018000000000000000003F801B
:104F500001FFE00380700600180400080402080442
:104F600002080203F00783F00002000002000400C0
:104F70000807FFF807FFF804080800080000080009
:104F800000080000080004080807FFF807FFF804FD
:104F900000080000000000000400080400080400ED
:104FA0000807FFF807FFF8040008040008040008D9
:104FB00000000000000000000000000600000700E4
:104FC000000104000104000104000307FFFE07FFC5
:104FD000FC04000004000004000004000807FFF8BF
:104FE00007FFF8040C08001800003E0004C7800505
:104FF00003C80600F8040038040018000008040084
:105000000807FFF807FFF804000800000800000880
:105010000000080000080000080000180000600000
:10502000000004000807FFF807800807FC00007F65
:10503000C00003F80007C000780007800807FFF8E9
:1050400007FFF804000804000807FFF8070008033A
:10505000C00000E000003800001E00000700000152
:10506000C00400F007FFF8040000000000007F808B
:1050700001FFE00380700600180400080400080621
:10508000001803003001FFE0007F800000000400F2
:105090000807FFF807FFF8040408040400040400EC
:1050A000040400040400060C0003F80001F00000F2
:1050B0000000000000007F8001FFE0038070060018
:1050C000880400880400C806003C03003E01FFE697
:1050D000007F8400000004000807FFF807FFF804C1
:1050E0000808040800040C00040F00040BC006109C
:1050F000F003F03801E00800000800000001E0F8CB
:1051000003F030063010041808041808040C0804D2
:105110000C080206180207F00781E0000000018079
:105120000006000004000004000004000807FFF867
:1051300007FFF80400080400000400000600000156
:10514000800004000007FFE007FFF00400180000E3
:105150000800000800000800000800000804001013
:1051600007FFE004000004000006000007E000075D
:10517000FE00041FE00001F80000380001E0043EDA
:105180000007C00006000004000004000007E00063
:1051900007FFC0041FF80007C007F80007FF8004DE
:1051A0003FF80007C004F8000700000400000000FA
:1051B0000004000806001807C07805F1C8003E008A
:1051C000001F800463E80780F80600180400080048
:1051D000000004000006000007800007E008047CCF
:1051E00008001FF80007F800180804E0080700008E
:1051F000060000040000000000010008060038045A
:1052000000F80403E8040F08047C0805F00807C050
:105210000807001804006000000000000000000003
:105220000000000000000000003FFFFE2000022000
:105230000002200002200002200002000000000006
:105240000000000008000007000000C00000380057
:105250000006000001C000003000000E0000010048
:1052600000000000000000002000022000022000DA
:10527000022000022000023FFFFE000000000000AC
:105280000000000000000000000000000000000816
:10529000000010000030000020000030000010006E
:1052A00000080000000000000000000001000001F4
:1052B00000000100000100000100000100000100E9
:1052C00000010000010000010000010000010000D9
:1052D000000000000000002000002000001000007E
:1052E00010000000000000000000000000000000AE
:1052F00000000000000000F00019F8001B18002258
:1053000008002608002408002410003FF8001FF8B9
:1053100000000800001800000004000007FFF80F5C
:10532000FFF00018180010080020080020080030C6
:1053300018001FF0000FC00000000000000007C0B0
:10534000001FF0001830002008002008002008008E
:105350003C08001C1000006000000000000000007D
:10536000000007C0001FF0003818002008002008C7
:1053700000200804101007FFF80FFFF000001000D5
:1053800000000000000000000007C0001FF0001235
:1053900030002218002208002208003208001E10E7
:1053A000000E200000000000000020000020080087
:1053B000200801FFF803FFF8062008042008042055
:1053C0000807200003000000000000000000000E9D
:1053D000000E6E001FF30031B10020B10020B100BB
:1053E0003191001F13002E1E00200E00300000001F
:1053F0000004000807FFF80FFFF800100800200065
:10540000002000002008003FF8001FF800000800FE
:10541000000000000000000000200800200800201C
:1054200008063FF8063FF8000008000008000008E2
:105430000000000000000000000000000000030069
:105440000003002001002001002003063FFE063F6C
:10545000FC00000000000000000000000004000844
:1054600007FFF80FFFF8000188000300002FC000BD
:1054700038F8002038002008000008000000000074
:105480000000000004000804000804000807FFF8FA
:105490000FFFF800000800000800000800000000EE
:1054A0000000002008003FF8003FF800100800202E
:1054B00000003FF8003FF8001008002000003FF80F
:1054C000003FF8000008000000002008003FF8003E
:1054D0003FF8001008001000002000002008003FE6
:1054E000F8001FF80000080000000000000007C0DE
:1054F000000FF000183000300800200800200800DD
:105500003008001830000FF00007C0000000000055
:1055100000002001003FFF003FFF001011002009A4
:10552000002008002008003038001FF0000FC000E5
:1055300000000000000007C0001FF0003818002025
:1055400008002008002009001011001FFF003FFF85
:1055500000000100000000200800200800200800D2
:105560003FF8003FF800080800100800200800205D
:1055700000003000003000000000000000000000CB
:10558000000C78001E1800330800230800210800D2
:1055900021880021980030F00038600000000000F1
:1055A0000000200000200000200000FFF003FFF8B2
:1055B0000020080020080020080000300000000043
:1055C0000000000000002000003FF0007FF8000015
:1055D00018000008000008002010003FF8007FF0CD
:1055E000000010000000000000002000003000005B
:1055F0003C00003F800023F0000078000070002392
:1056000080003C00003000002000002000003C0032
:10561000003FE00023F80000E0002700003E00000B
:105620003FE00021F80001E0003E00002000000003
:1056300000002008002008003838003E680027805D
:105640000003C8002CF8003838002018002008009B
:105650000000000000002000003003003C01003F7B
:10566000830023EC000070002380003C0000200039
:1056700000200000000000000000000000380800CA
:1056800020380020F80023E8002F88003E0800386A
:10569000080020180000700000000000000000005A
:1056A0000000000000000000000008000014001FBF
:1056B000F7FC30000620000200000000000000009F
:1056C00000000000000000000000000000000000DA
:1056D000FFFFFF00000000000000000000000000CD
:1056E00000000000000000002000023000061FF74C
:1056F000FC00140000080000000000000000000092
:1057000000000000000000000018000060000040E1
:10571000000040000020000010000008000004000D
:10572000000400000C000010000000000240000017
:10573000000000A00000000005400000000000C8BC
:10574000000000000C4000000000409C0000000031
:10575000194000000020BCBE0000000034400000E2
:10576000BFC91B8E00000004B5400000504BCFD0D5
:105770006607E2CF010000006C4100003E8251AAA2
:10578000DFEEA73401000000D9420000DCB5A0E242
:105790003A301F97FFFFFFFFB4450000FD25A0C86A
:1057A000E9A3C14FFFFFFFFFFF3F000000000080A3
:1057B00000000000FF3F000000000080000000002B
:1057C000FC57000800000020C81600006C0100080B
:1057D000D05A0008C8160020C00C0000C8010008FC
:1057E0001C00000043000000F8FFFFFF0C00000059
:1057F0000E0000000F0000002E0000001184A24ADD
:1058000004B0090102030406070809244042CC4001
:105810000AFE829292FE929282FE153F10887F20AD
:10582000081E1212125E807F4808044444445F44FC
:10583000C4066A044A22FF55081008071BF88801AD
:105840002AFF0552F81B1F08012A7F10349F80F0A1
:105850001CFE0282012AFA051382022D80601F407D
:105860000110087F40404458404010101010D0FFF5
:105870009010804828090E082848881B04035D20E2
:105880000B018080432C102C438080100F020CE011
:105890004020F84F4849FE484848081B0404951129
:1058A0001EFF2222223F042A20C12948194F3C50C2
:1058B00048C6D119AB590119A611180D0808E829D5
:1058C0002E28E80808C80C0B06293C1C0949894405
:1058D0002B0F40DF19BF380D0122A0A2A222FE2209
:1058E000AA3202FEDB280B10130A4B20170C1338C8
:1058F0008041200E8060F80704E4A4A4BFA4A4E4BF
:10590000041A0122196F2A4A0119750113E3363668
:10591000400D808088F88888F848444040C0180CC2
:10592000011E10131010090A0A301E4D21700B20A1
:10593000E020A0FCA4A010F0701D0305041FDC559E
:105940002120203826C0242CA06012E01AFC8011EF
:10595000180820201009060718273A20C031500ADD
:1059600010F0A8AE6878888880380D0641211B04A5
:10597000023F41404061317F1484CC085EC038084A
:10598000BC44AE14301F083F2225191E2160C058A8
:105990000B8040C40480808082FC40CF2B180F68AD
:1059A00011695E612A20010539303030101A080172
:1059B0003810C80C0C04040CFC04040646C6868689
:1059C000066801322C040703F653303F2B01030E07
:1059D0000134542060C02CF8F880010936D81B1817
:1059E000903B000C37FF1F21A11F10F0F0020101B6
:1059F0001F0C1E0320100C04000C36100906070CA7
:105A0000181830303020100810F09090D83810005E
:105A1000083A18F0908848781818108888C86838AC
:105A20001F0F14342464C4C18382E70134100901B8
:105A3000033C2212121E16000943023E1212121FCC
:105A400016020373FCF86CFFFE02018BFFFF0B02D2
:105A500068036C1F1F04017BFFFF0B02741F038C84
:105A60007F3F07FFF8F8F0F0702001E60214801A7B
:105A7000FF0109122C09132D01FF01C0EDFFFFFEEC
:105A800006011AFF01F915391603FF070201D10CAF
:105A900012FFFFFF1409101509151601FF01C1EDD2
:105AA000FFFFFF18011914091015391601FF01D263
:105AB00004120201011AFF01011209122A01FF0159
:105AC000D71AFF0101FF01FD05FF1F1F0F0F01E1A5
:0400000508000225C8
:00000001FF
